:100000000C9450000C945A000C945A000C945A0012
:100010000C945A000C945A000C945A000C945A00F8
:100020000C945A000C945A000C945A000C945A00E8
:100030000C945A000C945A000C945A000C945A00D8
:100040000C945A000C945A000C945A000C945A00C8
:100050000C945A000C945A000C945A000C945A00B8
:100060000C945A000C945A000C945A000C945A00A8
:100070000C945A000C945A000C945A000C945A0098
:100080000C945A000C945A000C945A000C945A0088
:100090000C945A000C945A000C945A000C945A0078
:1000A00011241FBECFEFCDBFDFE3DEBF0E945C0097
:1000B0000C9479000C9400000E945F00FFCF46EB87
:1000C0004093080832E0309309082AE32093070898
:1000D00091E09093010480EC8093060840932808F7
:1000E0003093290820932708909341048093260891
:0600F0000895F894FFCF13
:00000001FF
