S015000042616368656C6F7250726F65662E73726563F3
S11300000C9450000C945A000C945A000C945A000E
S11300100C945A000C945A000C945A000C945A00F4
S11300200C945A000C945A000C945A000C945A00E4
S11300300C945A000C945A000C945A000C945A00D4
S11300400C945A000C945A000C945A000C945A00C4
S11300500C945A000C945A000C945A000C945A00B4
S11300600C945A000C945A000C945A000C945A00A4
S11300700C945A000C945A000C945A000C945A0094
S11300800C945A000C945A000C945A000C945A0084
S11300900C945A000C945A000C945A000C945A0074
S11300A011241FBECFEFCDBFDFE3DEBF0E945C0093
S11300B00C949F000C9400000E948200FFCF80915A
S11300C0040885FF0AC0E3E0F8E080818E7F808326
S11300D01092020880E090E0089581E090E0089595
S11300E08091040885FF0BC0E3E0F8E08081816023
S11300F080838FEF8093020880E090E0089581E090
S113010090E00895CF93DF938091010888238CF4C5
S113011080910108C0910008D0E082FD02C081FFF7
S113012005C00E947000C1E0D0E005C00E945F00DD
S113013002C0C1E0D0E0CE01DF91CF910895F894E0
S1050140FFCFEB
S9030000FC
