S015000042616368656C6F7250726F65662E73726563F3
S11300004FC0000055C0000053C0000051C00000A4
S11300104FC000004DC000004BC0000049C00000AC
S113002047C0000045C0000043C0000041C00000BC
S11300303FC000003DC000003BC0000039C00000CC
S113004037C0000035C0000033C0000031C00000DC
S11300502FC000002DC000002BC0000029C00000EC
S113006027C0000025C0000023C0000021C00000FC
S11300701FC000001DC000001BC0000019C000000C
S113008017C0000015C0000013C0000011C000001C
S11300900FC000000DC000000BC0000009C000002C
S11300A011241FBECFEFCDBFDFE3DEBF02D058C0A7
S11300B0A7CF02D03ED0FFCF46EB4093080832E0F2
S11300C0309309082EE32093070891E090930104EC
S11300D080EC8093060840932808309329082093E5
S11300E0270890934104809326080895809104087A
S11300F085FF0AC0809103088E7F809303081092C5
S1130100020880E090E0089581E090E008958091F5
S1130110040885FF0BC08091030881608093030865
S11301208FEF8093020880E090E0089581E090E0F2
S11301300895CF93DF938091010887FF0BC08091CE
S11301400108C0910008867011F0E1DF03C0D0E01F
S1130150CDDF02C0C1E0D0E0CE01DF91CF910895A0
S1070160F894FFCF3D
S9030000FC
