S0150000426163686F6C617270726F65662E73726563D7
S11300000C9450000C945A000C945A000C945A000E
S11300100C945A000C945A000C945A000C945A00F4
S11300200C945A000C945A000C945A000C945A00E4
S11300300C945A000C945A000C945A000C945A00D4
S11300400C945A000C945A000C945A000C945A00C4
S11300500C945A000C945A000C945A000C945A00B4
S11300600C945A000C945A000C945A000C945A00A4
S11300700C945A000C945A000C945A000C945A0094
S11300800C945A000C945A000C945A000C945A0084
S11300900C945A000C945A000C945A000C945A0074
S11300A011241FBECFEFCDBFDFE3DEBF0E945C0093
S11100B00C945D000C940000FFCFF894FFCF79
S9030000FC
